:0200000460009A
:10000000FFFFFFFFFFFFFFFFFFFFFFFFFFFFFFFF00
:10001000FFFFFFFFFFFFFFFFFFFFFFFFFFFFFFFFF0
:10002000FFFFFFFFFFFFFFFFFFFFFFFFFFFFFFFFE0
:10003000FFFFFFFFFFFFFFFFFFFFFFFFFFFFFFFFD0
:100400004643464200040156000000000103030079
:1004100000000000000000000000000000000000DC
:1004200000000000000000000000000000000000CC
:1004300000000000000000000000000000000000BC
:1004400000000000000406000000000000000000A2
:10045000000000010000000000000000000000009B
:10046000000000000000000000000000000000008C
:10047000000000000000000000000000000000007C
:10048000EB04180A063204260000000000000000F9
:10049000000000000000000000000000000000005C
:1004A000000000000000000000000000000000004C
:1004B000000000000000000000000000000000003C
:1004C000000000000000000000000000000000002C
:1004D000000000000000000000000000000000001C
:1004E000000000000000000000000000000000000C
:1004F00000000000000000000000000000000000FC
:1005000000000000000000000000000000000000EB
:1005100000000000000000000000000000000000DB
:1005200000000000000000000000000000000000CB
:1005300000000000000000000000000000000000BB
:1005400000000000000000000000000000000000AB
:10055000000000000000000000000000000000009B
:10056000000000000000000000000000000000008B
:10057000000000000000000000000000000000007B
:10058000000000000000000000000000000000006B
:10059000000000000000000000000000000000005B
:1005A000000000000000000000000000000000004B
:1005B000000000000000000000000000000000003B
:1005C000000100000010000000000000000000001A
:1005D0000000040000000000000000000000000017
:1005E000000000000000000000000000000000000B
:1005F00000000000000000000000000000000000FB
:10060000FFFFFFFFFFFFFFFFFFFFFFFFFFFFFFFFFA
:10061000FFFFFFFFFFFFFFFFFFFFFFFFFFFFFFFFEA
:10100000D10020410020006000000000000000002E
:1010100020100060001000600000000000000000D0
:10102000000000600000000100000000FFFFFFFF63
:10103000FFFFFFFFFFFFFFFFFFFFFFFFFFFFFFFFC0
:10104000FFFFFFFFFFFFFFFFFFFFFFFFFFFFFFFFB0
:10105000FFFFFFFFFFFFFFFFFFFFFFFFFFFFFFFFA0
:10106000FFFFFFFFFFFFFFFFFFFFFFFFFFFFFFFF90
:1020000000800020E9210060D12100605972006049
:1020100000000000000000000000000000000000C0
:10202000000000000000000000000000D921006056
:102030000000000000000000DD210060E1210060E0
:10204000F16F0060F96F006001700060097000605E
:1020500011700060197000602170006029700060CC
:10206000317000603970006041700060497000603C
:1020700051700060597000606170006069700060AC
:10208000717000607970006081700060897000601C
:102090009170006099700060A1700060A97000608C
:1020A00031770060AD770060B1700060B97000609A
:1020B000C1700060C9700060D1700060D9700060AC
:1020C000E1700060E9700060F1700060F97000601C
:1020D0000171006009710060117100601971006088
:1020E00021710060297100603171006039710060F8
:1020F0004171006049710060517100605971006068
:1021000061710060697100607171006079710060D7
:102110008171006089710060917100609971006047
:10212000DD760060A1710060A9710060B17100608E
:10213000B9710060C1710060C9710060D171006047
:10214000D9710060E1710060E9710060F1710060B7
:10215000F971006001720060097200601172006024
:102160001972006021720060297200603172006093
:102170003972006041720060497200605172006003
:1021800010DB006000000020D800000010DB0060C1
:10219000000000000000000010DB006000002020B4
:1021A0000000000010DB0060008020200000000024
:1021B00000100020D03F00000000000000000000E0
:1021C000000020200000000000802020000000000F
:1021D000FEE700BFFEE700BFFEE700BFFEE700BF6F
:1021E000FEE700BFFEE700BF2DE9F04172B607F041
:1021F0007FFE544F544ABA4238D2D2E900560C32CC
:1022000052F8043C2846002BF5D006F1080105F1F0
:10221000080C45EA0604013BB44588BFA94294BFB7
:102220000121002114F0070F18BF0021002975D0EB
:102230002F2B73D99B082C46A6EB050C01334FEAD4
:10224000530E05EBCE0E0CEB0408083454E90201E2
:102250007445C8E90001F6D123F001018B42CAD0D0
:1022600055F82130BA4246F82130C6D3374B9A424E
:1022700050D2013B02F1100702F1080500249B1A1D
:102280000020002123F007031F4455E9023C1A46B1
:10229000BCF1000F3BD00CF1FF38C3F380064FEACE
:1022A000980EB8F1170F0EF1010E48D9002E44D048
:1022B0004FF0040842F8044BAEEB060E03EB860326
:1022C0004FEA5E0603EBC606E3E802019E42FBD13D
:1022D0002EF00106B300B6451A44434417D01E1D24
:1022E0001460B44513D903F108065460B4450ED9FF
:1022F00003F10C069460B44509D903F11006D460CB
:10230000B44504D9143314619C4588BF5461083521
:10231000BD42BAD162B60AF05BF8FEE723F00303D0
:10232000291DA6EB050C0B44014651F8044B9942BC
:1023300040F80C400846F7D15DE7B046BCE7002303
:10234000CDE700BFB021006080210060D021006097
:10235000D9B32DE9F84F00EB810B0D4682460024DE
:10236000ABF1040B1BA7D7E900671FE00AF0F2FAF4
:102370000022174B09F050FD8046894628460AF096
:10238000E9FA02460B464046494609F0CFFD32467F
:102390003B4609F041FD32463B4609F06FFE0AF02C
:1023A00096FA4AF824000134A5420CD0B5EB440F4C
:1023B0002046DBD8C4EB84735BF823304AF8243022
:1023C0000134A542F2D1BDE8F88F7047AFF3008029
:1023D000000010400000000060E34641FFFFFFFFE7
:1023E000C9B32DE9F84F002588468146DFF878B05B
:1023F000DFF878A02C461AA7D7E9006705E049F86E
:1024000024A001340635A0450AD0A845F7D8B8EB7A
:10241000440F07D949F824B001340635A045F4D15A
:10242000BDE8F88FB4FBF8F00AF094FA00220A4BEA
:1024300009F024FE0022094B09F0EEFC32463B462F
:1024400009F0EAFC32463B4609F018FE0AF03FFA72
:1024500049F82400D5E770470000E03F0000104035
:102460000000000060E346414039D2FFC0C62D00A5
:10247000F0B52DED048B83B0044610EE100AF0EE9B
:10248000419ACDED010A0D4609F080FF83A3D3E9FF
:10249000002309F0C1FCDDED010A06460F4610EEEF
:1024A000900A09F073FF02460B463046394609F0A0
:1024B0003DFD09F043FF09EE100A00EE100A08F096
:1024C00005FAF0EE408AB0EE490A08F045FAF5EE5A
:1024D000C09AB0EE408AF1EE10FA48BFDFED6C9A78
:1024E000012D6DD0002D00F0A080022D5DD1B0EE49
:1024F000000A08F07BFA10EE100A09F047FF0022EC
:10250000644B09F089FC06460F4619EE900A09F063
:102510003DFF02460B463046394609F07DFC064633
:102520000F4619EE100A09F031FF02460B463046FD
:10253000394609F071FC06460F4618EE900A09F07C
:1025400025FF02460B463046394609F0EFFC09F0FC
:10255000F5FE00EE100A08F0BBFAF7EE007A28EE5E
:10256000800ADFED4D6AB8EE006A30EE275A37EE8A
:10257000C07AF1EE405A28EE068AC7EE057A85EE5B
:10258000856A80EE057AC6EE855AC8EE056A84ED46
:10259000007AC4ED015A84ED026AC4ED036AC4ED09
:1025A000047A03B0BDEC048BF0BDDFED3B7AF0EEB6
:1025B000676AB0EE676AF0EE675AB0EE677AE6E7F0
:1025C00018EE900A09F0E2FE06460F4619EE900A50
:1025D00009F0DCFE02460B4609F026FE02460B46D9
:1025E0003046394609F0A2FC09F0A8FEF7EE007A61
:1025F000F6EE005A06EE900AB8EE005A38EE277A48
:1026000036EEA76A77EEE66A67EE255AF1EE477A6C
:1026100028EE058A85EE867AC7EE865AC6EE867A59
:10262000C8EE066AB0EE476AB1E718EE900A09F004
:10263000ADFE06460F4619EE900A09F0A7FE0246C7
:102640000B4609F0F1FD02460B463046394609F0CB
:102650006DFC09F073FEF7EE007AB6EE007A06EE36
:10266000900AF8EE005A37EEC85A36EEA76A77EEAF
:10267000E66A65EE077A28EE258AC5EE065A87EEE9
:10268000867AC6EE867AC8EE066AB0EE476A7EE7BC
:102690006F12833A0000E03F00000000000000607D
:1026A000FB211940FFFFFFFF2DE9F04F2DED068BB9
:1026B000ADF6243D5A4D08F0EBF8002407F0C8FFB2
:1026C0004FF0000807F0C6FFDFF87C9107F046FDE9
:1026D000544809F061F94FF40071534804F0C2FE08
:1026E0004FF400715148FFF733FE4BA7D7E900675D
:1026F000204601340AF02EF902460B4609F094FDFB
:1027000042464B4609F088FB32463B4609F084FBC3
:1027100032463B4609F0B2FC0AF0D9F8B4F5007F26
:1027200045F8040FE4D121464148FFF759FE39220C
:102730008021C7A89FED3F0A04F0C0FE02224FF09F
:1027400084433D490A601B683C4A9B06CDF81C2B1C
:102750007CD43B4B1C223B4903931B68019102FB39
:1027600003F28A587F2A05D802F5C0721421C7A83F
:1027700040F822101C22019902FB031252687F2AA2
:1027800005D802F5C0721421C7A840F822101C22F7
:10279000019902FB031292687F2A05D802F5C072E4
:1027A0001421C7A840F822101C22019902FB031231
:1027B000D2687F2A05D802F5C0721421C7A840F854
:1027C00022101C22019902FB031212697F2A05D8EC
:1027D00002F5C0721421C7A840F822101C220199EA
:1027E00002FB031252697F2A05D802F5C072142138
:1027F000C7A840F822101C22019902FB03139B6911
:102800007F2B05D803F5C0731422C7A941F82320F4
:102810000123009320E000BF0000000060E3464178
:102820008C35002030CD0060903D00209045002088
:10283000902D002000005C43002C002090350020EB
:10284000FC2B002050CC00600000603F0023009370
:10285000DB4B0393DB4B01930024DB4809F09CF82E
:1028600013A821464FF4B472804606940D940DF5DA
:10287000DA79DFF8ACA3DFF8ACB39FEDD4AADFEDD3
:10288000D49ACDE90444CDE90744CDE90944CDE922
:102890000B4409F0ACFD4FF4B47221466DA81294BC
:1028A000CDE90E44CDE9104409F0A1FDC94B214604
:1028B00004A893ED001ADFEDC80A9FEDC80AFFF7E0
:1028C000D7FDC74B09A8012193ED001ADFEDC20A1D
:1028D0009FEDC40AFFF7CCFDC34BC44A21460EA8A6
:1028E00093ED001ADFEDC20A9FEDC20A0292FFF7D4
:1028F000BFFD5AF8040B08F1140809F047FD09F16F
:102900001409A9A3D3E9002309F086FA06460F4665
:10291000A7A3D3E9002309F009FBFBEC01AA09F006
:102920000DFD09EE100A00EE100A07F0CFFFB0EE21
:10293000408AB0EE490A08F00FF8F5EEC0AAF0EEB2
:10294000408AB0EE000AF1EE10FA48BFF0EE4AAA53
:1029500008F04CF810EE100A09F018FD0022A64B02
:1029600009F05AFA04460D461AEE900A09F00EFDD7
:1029700002460B462046294609F04EFA04460D460B
:1029800019EE100A09F002FD02460B4620462946C0
:1029900009F042FA04460D4618EE100A09F0F6FC5A
:1029A00002460B462046294609F0C0FA09F0C6FC4B
:1029B00000EE100A08F08CF8B7EE007A28EE000A54
:1029C000029BB8EE006A3046B3EC019A394670EECD
:1029D000077AF1EE406A029337EE407A68EE868A13
:1029E000C0EE275A87EE275A86EEA76A88EEA77AA6
:1029F00048ED055AC9EEA76A08ED015A08ED036AC9
:102A00006DA3D3E9002308ED027A48ED046A09F0CA
:102A10008DFA09F093FC064600EE100A07F056FF07
:102A2000B0EE408A00EE106A07F096FFB5EEC09A4D
:102A3000F0EE408AB0EE000AF1EE10FA48BFB0EEB8
:102A40004A9A07F0D3FF10EE100A09F09FFC00220B
:102A5000694B09F0E1F904460D4619EE100A09F038
:102A600095FC02460B462046294609F0D5F9044656
:102A70000D46304609F08AFC02460B4620462946A0
:102A800009F0CAF904460D4618EE100A09F07EFC5A
:102A90000B4602462946204609F048FA09F04EFC4A
:102AA00000EE100A08F014F8B7EE007A28EE000ADB
:102AB000524BB8EE006A9A4570EE077AF1EE406A22
:102AC00037EE407A68EE868AC0EE275A87EE275A9C
:102AD00086EEA76A88EEA77A49ED055AC9EEA76A7D
:102AE00009ED015A09ED036A09ED027A49ED046A1C
:102AF0007FF4FFAE424808F04FFF424A424C136950
:102B000043F00803136104F04DFC404808F044FF13
:102B1000A3682046012143F00053A360D4F8883015
:102B200043F00053C4F8883006F01CFF2046012112
:102B300006F040FF009B002B00F0D3820023344FAF
:102B4000DFF8E4A09B4602934FF08073CAF884300C
:102B5000BFF34F8FBFF36F8F2E4A1278CAF804303D
:102B6000002A40F04F81009B002B00F016814FF0AF
:102B70008072CAF88020BBF1000F57D0BFF34F8F8F
:102B8000BFF36F8F244B1B78CAF8002003F0FF0BB4
:102B9000002B40F02881214B4FF40062C3F88820BD
:102BA000D2E700BFAFF3008000000060FB211940B6
:102BB000000000605585BE400000000000E4E640D3
:102BC000FC2B002050CC00604CCD00606F12833A8B
:102BD000000000004C0000200020374700805445D2
:102BE0009800002000C05A454800002050000020F6
:102BF000AB2AF4450000C8420000E03F50CC006022
:102C000068CD006000401A4000001E4088CD006082
:102C1000802D0020CC4F0020CE4F002000801B4094
:102C200008CC00600000002000E100E0BFF34F8FFF
:102C3000BFF36F8F6D4B1B78CAF8002003F0FF0BBA
:102C4000002B81D06A4B4FF40062C3F88420009BB4
:102C5000002B00F0CF81039B01981B68DA00D11A8A
:102C600050F821107F2905D801F5C0710020C7ACAC
:102C700044F82100D11A019800EB810149687F29AD
:102C800005D801F5C0710020C7AC44F82100D11A65
:102C9000019800EB810189687F2905D801F5C07191
:102CA0000020C7AC44F82100D11A019800EB810143
:102CB000C9687F2905D801F5C0710020C7AC44F868
:102CC0002100D11A019800EB810109697F2905D8FB
:102CD00001F5C0710020C7AC44F82100D11A019859
:102CE00000EB810149697F2905D801F5C0710020F9
:102CF000C7AC44F82100D21A019901EB8202926913
:102D00007F2A05D802F5C0720021C7A840F822101A
:102D10000133039A082B136000F07E81C3EBC303D9
:102D2000019951F823C001EB8302BCF17F0FD2E976
:102D30000165D2E90340D2E9051340F2CA817F2E32
:102D400040F276817F2D05D805F5C0751422C7AEF7
:102D500046F825207F2C05D804F5C0741422C7AD91
:102D600045F824207F2805D800F5C0701422C7AC90
:102D700044F820207F2905D801F5C0711422C7A886
:102D800040F821207F2B2ED803F5C0731422C7A949
:102D9000DDF800B041F82320D6E6164B186804F0A1
:102DA0008FFD154804F08EFD144B1B78002B3FF46B
:102DB000DEAE134A1378927803F00F03082B00F06D
:102DC0003F81092B0BD17F2A09D80D4B02F5C07228
:102DD000C7A9DB787F2B28BF7F2341F8223000234F
:102DE000064A1370C3E64FF0010BADE6CE4F00204C
:102DF00000801B40802C0020182C0020CD4F00208C
:102E0000042C0020CAF88430BFF34F8FBFF36F8FBC
:102E1000B94BBA491A68B84B002A9DED050A5B68A0
:102E2000B8BFFF32DDED046A002BDDED095A4FEA31
:102E30002222DDED063AB8BFFF339DED0B4A0A6052
:102E40004FF080721B12AE49CAF8042007EE903A88
:102E5000AC4A91ED006AB8EEE77A92ED005ADDEDEA
:102E60000A7A25EE000AD1ED014A66EE277AA648D5
:102E7000A64CA7EE260AD2ED016AE7EE257A9DED73
:102E8000072AD0ED005ADDED0C2A9DED083A9B4D46
:102E9000A3EEA60AD4ED006AE4EE247AD0ED013A5E
:102EA000D4ED014A9DED0D4A6B60029BA2EE650ACE
:102EB00082ED007AE2EEE67A82ED015AC0ED015A27
:102EC00081ED007A81ED016AC4ED016AA3EE630A27
:102ED000E4EE647A80ED000AB0EE678AC4ED007A11
:102EE000002B00F0B780012B00F0B880C7A8884CF9
:102EF00004F04CFB07EE900A864A2346B8EEE75AE8
:102F0000D2ED014A6DAAD2ED027A143212ED056AB1
:102F100064EEA77AD3ED006A52ED025A93ED017A7E
:102F2000E5EE067A12ED016A83ED027AC3ED016ADD
:102F3000E6EEE57AE7EE467A17EE901A43F80C1BB8
:102F40009F42E0D1734A0025734E136882ED005A08
:102F5000536023460C34D3ED006A33460C3693EDB0
:102F6000007A66EE877A17EE900A09F00FFA60A3EE
:102F7000D3E9002308F050FF80468946284609F02F
:102F800005FA02460B464046494609F04DF909F05C
:102F9000D5F9BC420546DCD107EE900A4FF08073AC
:102FA0005E4977EE887AFDEEE77A17EE902AC1E95E
:102FB0000022CAF88430BFF34F8FBFF36F8F02989F
:102FC00001300628D1E9001208BF00200902029052
:102FD0001202534801604260CAF80430CAF88430D3
:102FE000BFF34F8FBFF36F8F00224E490A70CAF8AC
:102FF0000430B8E54C4A1368013303F00303022B95
:10300000136062D0032B5CD0484A4949012B18BF9A
:103010000A46CDF81C2B97E51046142300222D26D6
:10302000CDF8A03940210260392434253C204523C5
:1030300006F5C07614220DF5477C4CF8262081E673
:103040007F2A3FF6CCAE02F5C072C7A9009B41F8BB
:103050002230C4E613A804F0FFFA47E7DDED0E2A9C
:103060009DED0F3ADDED103A9DED114ADDED124A6E
:10307000294B3049304AD2ED005AB1EC016A23EEB7
:10308000257A92ED015AD3ED006A16EE100AD3EDBF
:10309000017AA2EE867AC2ED015A42F8080BC3ED1E
:1030A000016AC3ED027AA3EE857AA6EEC47AA7EE92
:1030B000E47A17EE100A43F80C0B20489842DAD154
:1030C00014E71F4BCDF81C3B3EE51E4BCDF81C3BD7
:1030D0003AE50CF5C07C14220DF5477E4EF82C2005
:1030E0002DE6194808F058FC04F042FB26E500BF25
:1030F0002D431CEBE2360A3F5C290020882C00207F
:10310000802D0020902C0020982C0020882D00205D
:10311000A82C0020A02C0020242B0020C02500205B
:1031200064290020CC4F0020002C00209045002076
:10313000903D00206C290020942A0020FC2B0020C8
:10314000902D002090350020A0CD0060FFFFFFFFF4
:103150002DE9F047F7EE007A2DED048BF4EE670AC7
:10316000F1EE10FA82B0F0EE608A1AD0B5EEC00A25
:10317000F1EE10FA33D8B5EE400AF1EE10FA15D19F
:10318000F5EEC00AF1EE10FA00F2BC80944BF5EEB9
:10319000400A2122F1EE10FA1A6000F019819FED29
:1031A000910A02B0BDEC048BBDE8F087FDEEE07A39
:1031B000B1EE400A17EE90AA0AF0010AF0EE007A8A
:1031C000F4EE678AF1EE10FA0CD1DFED877AB4EEF7
:1031D000E70AF1EE10FA05D520EE000AE1E74FF01C
:1031E000000AEBE701A808F0A7FC10EE100A09F0AE
:1031F000CDF879A3D3E900230F46064609F0AEFBCC
:10320000002814BF08240024784D04F1040805EBBD
:10321000C80132463B46D1E9000109F0CAFB00284B
:1032200018BF444604F1020805EBC80132463B468C
:10323000D1E9000109F0BDFB002818BF444605EBA9
:10324000C403D3E90289304642464B46394608F06A
:1032500015FF09F073F807EE900A32463B464046E8
:10326000494637EEA78A08F0DFFF09F067F807EE56
:10327000900A88EE279A0198C4EB001001389FED60
:103280005C7A9FED5C8A69EE097AA7EE878A28EE60
:10329000278A07EE900AFAEECE7A28EE098A17EE10
:1032A000900A09F073F8DFED547AA8EE278A0646F3
:1032B0000F46A9EE278A78EE097A17EE900A09F0F0
:1032C00065F802460B463046394608F0ADFF064623
:1032D00018EE900A0F4609F059F802460B463046A0
:1032E000394608F099FD0022444B06460F4608F087
:1032F00093FD09F0ECFA10F5006F804605DA384BC3
:1033000022221A609FED3E0A4BE707EE900AF8EE84
:10331000E77A0028B4BF00F10F04041117EE900AF9
:10332000B4BF2411013409F031F80022354B08F004
:1033300073FD02460B463046394608F09FFE08F002
:10334000FDFF9FED317ADFED316A07EE900AE7EE7F
:10335000876AC8EB041805EBC8089FED2D7AA6EE26
:10336000A77ADFED2C6AE7EE276A9FED2B7AA6EEAF
:10337000A77A67EE277A17EE900A09F007F800227D
:10338000264B08F051FFD8E9002308F045FD08F06E
:10339000D5FF00EE100A01A808F0CEFB01982044EA
:1033A000802809DD0E4B22221A60BAF1000F7FF44B
:1033B000F6AE9FED1B0AF4E610F17D0F9FDB08F0DF
:1033C000E5FBBAF1000F3FF4ECAEB1EE400AE8E6DF
:1033D000B0EE670AE5E600BFCD3B7F669EA0E63F04
:1033E0000C4F0020000080FFA95F635898CA00605E
:1033F00000E84C3CAAAAAA3DEDA8E23E00003040FD
:10340000000000000000B03F1815AB3A4B8D1D3C8A
:103410003758633DF0FD753E1872313F0000F03FB4
:103420000000807F30B5012589B00024AA420493B2
:103430008DF8082005918DF81A00ADF818408DF828
:103440001B508DF81C5003D043F2215009B030BD01
:103450000E4D04AB1C2221462846039308F0C7FFFB
:10346000694628462D6106F019FE05F11401286908
:1034700006F02AFE05F11801286906F039FE2A69CE
:10348000034B20461A6009B030BD00BFCC25002098
:10349000C825002070B4012883B04FF000042D4DE2
:1034A000CDE900450CD9811ECBB2012B0CD9831F6D
:1034B000DBB2012B08D9A0F10A03DBB2012B03D93F
:1034C000012003B070BC704702AC04EB8303214CB5
:1034D000009453F8083C002BF2D001EB41011E4C44
:1034E0004FF4C016002549010C44A0F10A01C4F8AC
:1034F000B46101291C6B44F480441C631C6B44F4CC
:1035000000441C631D6018D9062816D0EAB1517812
:10351000002094780904157824021E6901F47021B2
:1035200005F00F0504F470640C4A2143324029432E
:103530001143196103B070BC70474FF400204FF481
:10354000801158635963002AE1D1104603B070BC62
:10355000704700BF00900D4000800D40F0F0F0FF7C
:1035600082B00022134B0128CDE900230BD9831E22
:10357000DBB2012B09D9831FDBB2012B05D90A3835
:10358000C3B2012B01D902B0704702AA02EB830338
:10359000084A009253F8083C002BF4D01A6B21B172
:1035A00042F002021A6302B0704722F002021A636C
:1035B00002B0704700900D4070B5866D04460D4610
:1035C00026B11346006CCA684968B047294620688E
:1035D000BDE8704003F0ACBC81692DE9F0470646B8
:1035E00084B049B10022006803F070FCB169306812
:1035F00003F016FC0023B3613169706800F0ECFE43
:103600008246002842D1356995F83C0000283DD01B
:103610005446534640F20139D04640F6B83702E0EE
:10362000E3B2984232D903EB4303013455F8233017
:103630009A781106F4D5D97801F003010329EFD166
:1036400002F00F02706831468DF809206A4693F83F
:1036500006C000908DF808C058791B79ADF80A9023
:1036600043EA002351F8180B8DF80C80C3F30A03CA
:10367000ADF80470A6F85C30ADF8063003F0C6FB78
:1036800040B995F83C00E3B29842CCD8504604B01B
:10369000BDE8F0874FF0010AF8E700BF70B50025DC
:1036A00004460E46856462B11346E56C1DB10022E6
:1036B000E06B1146A84731462068BDE8704003F032
:1036C00037BCFFF789FF0346EFE700BF016A2DE92A
:1036D000F047824684B029B1006803F0A1FB0023C3
:1036E000CAF82030DAF8241031B1DAF8000003F01B
:1036F00097FB0023CAF82430DAF81410DAF8040033
:1037000000F06AFE064600284BD1DAF8145095F80E
:103710003C10002945D0044603464FF4007980460A
:1037200040F6B83705E0022B3FD00134E3B28B42BC
:1037300037D203EB430355F823008278C37812F0A5
:10374000800F03F00303EED0022BEED102F00F0244
:10375000DAF8043051468DF8092040F2012290F841
:1037600006C000938DF808C090F805C0037951F8A1
:10377000200B43EA0C23ADF80A206A468DF80C8032
:10378000C3F30A03ADF80470AAF86030ADF8063050
:1037900003F03CFB68BB013495F83C10E3B28B426C
:1037A000C7D3304604B0BDE8F08702F00F02DAF864
:1037B000043051468DF809206A4690F806C00093FF
:1037C0008DF808C090F805C0037951F8240B43EA3E
:1037D0000C23ADF80A908DF80C80C3F30A03ADF802
:1037E0000470AAF85E30ADF8063003F00FFB002835
:1037F000D1D00126304604B0BDE8F08770B5002571
:1038000004460E46856462B11346E56C1DB1002284
:10381000E06B1146A84731462068BDE8704003F0D0
:1038200087BBFFF753FF0346EFE700BFF0B506463F
:1038300083B068200F4604F0CFF9B0B100250446EC
:10384000466001AA056108214561304603F086FB08
:10385000019B01AA30462360092103F07FFB019BF5
:103860002846E3613C6003B0F0BD0C2003B0F0BD1E
:10387000F0B583B0002843D016460A468169044655
:103880001F46026191B10022006803F01FFB05464C
:103890007EB947B12046FFF79FFE324605460346F4
:1038A00031460898B847284603B0F0BD0D46002EB3
:1038B000EFD001A9206803F01BFB18B101252846B1
:1038C00003B0F0BD019B40F60135E764D9691A46A3
:1038D000DFF840C0089FE763C3E904C40D80256991
:1038E0002D6BAD78C8808D804E80E169C3E9010001
:1038F000206803F09FFA054630B9019BA364D2E724
:103900000425284603B0F0BD2068019903F010FBA0
:10391000C9E700BF9D360060F0B583B0002849D0EC
:1039200016460A46016A04461F464261C9B1002292
:10393000006803F0CBFA0546616A21B100222068D5
:1039400003F0C4FA054676B947B12046FFF7BEFE3C
:1039500032460546034631460898B847284603B024
:10396000F0BD0D46E8E701A9206803F0C1FA18B1DF
:103970000125284603B0F0BD019B40F60135E76400
:10398000D9691A46DFF840C0089FE763C3E904C459
:103990000D8065692D6BAD78C8808D804E80E169A2
:1039A000C3E90100206803F045FA054630B9019BE0
:1039B000A364D3E70425284603B0F0BD206801992D
:1039C00003F0B6FACAE700BFFD370060002840D018
:1039D00038B50C46002938D08969054649B100221E
:1039E000206803F073FAA169206803F019FA002334
:1039F000A3612169284600F03BFD216A49B10022FC
:103A0000206803F063FA216A206803F009FA0023B2
:103A10002362616A49B10022206803F057FA616AA3
:103A2000206803F0FDF900236362E16921B1A26C13
:103A300012B1206803F04AFA6169284600F018FDC7
:103A4000204604F0EDF8002038BD00F011FD2046BE
:103A500038BD0320704700BF20B3F0B5046A83B0BF
:103A600044B104460E46006801A91F46154603F0FE
:103A70003FFA10B1012003B0F0BD019B0A4908983C
:103A80001A46A76520642068C3E90414C3E90165E8
:103A9000216A03F0F7F90028EDD02068019903F0BE
:103AA00047FAE7E703207047B9350060022900D1E3
:103AB00008B900207047012A0CBFB0F86000B0F8C8
:103AC0005E0070472DE9F84F90F870310446D0F849
:103AD0005851023B4068042B00F2C181DFE803F03B
:103AE0000F451F250300B4F860318B4204D1D4F890
:103AF0005C311B7AFA2B4ED90120BDE8F88F0829DA
:103B0000FAD1D4F854412A46D0F8D0320521E479CC
:103B10009B690068AC8198470020BDE8F88FB1F13F
:103B2000120018BF0120BDE8F88F0929E4D1D4F8AC
:103B30006C21D4F85C01D178937843EA0123A4F88E
:103B4000603130B104F06CF80022B4F86031C4F890
:103B50005C219A0717D1184604F03EF8C4F85C01BE
:103B6000002814BF00200C20D7E794F874312A46AF
:103B7000042184F87531D0F8D03200689B699847E9
:103B80000020BDE8F88F23F00300043004F024F88F
:103B9000C4F85C01E4E7B4F8620104F1080504F537
:103BA000AA71002201302B46A4F8620143F8042BCD
:103BB0008B42FBD1D4F85C11C4F8642184F86821ED
:103BC0000B78092B2FD094F8523193B101229342F4
:103BD00084F864210DD0022B84F8652109D0032BD1
:103BE00084F8662105D0042B84F8672101D084F87D
:103BF000682163685B682BB10122294620469847FB
:103C000000288AD0D4F85431B4F862215B7C9A42FF
:103C10003BD363685B68002B39D0294620460422D9
:103C20009847082079E74B78022BCCD1B4F8606133
:103C300001F10903C4F848110E44A4F85021C4F856
:103C40004C2119469E4284F8522122D958780428E2
:103C50001FD000221146A9B100283FF44DAF1978BA
:103C60000A440B4400293FF447AF92B29E421946E2
:103C7000A4F850210DD9587804280AD0D4F84C1152
:103C80000029E9D1C4F84C31E6E7092045E70820CE
:103C900043E700204FF00C0E84468E4293D94B78B8
:103CA000042B7FF429AFCB78002B40F0A78094F849
:103CB0005271042F3FF620AFB80107F10108221816
:103CC00084F85281074691F802A091F800800830EC
:103CD000914682F84330204482F844309163A2F840
:103CE0004030D36382F842A0B8F1000F3FF404AF34
:103CF00041448E42884620D991F801A0AAF10403DC
:103D0000012B1AD9D9F83C30002B71D0BAF1000F31
:103D10003FF4F2AE0B789844002B3FF4EDAEB2F8CE
:103D200040A0464541465344A2F8403005D998F892
:103D300001A0AAF10403012BE4D804EB0709D9F888
:103D400038301B79002BA8D091F80180B8F1050F0D
:103D50007FF4D2AE042B3FF6CFAED9F8383092F8CC
:103D600044801B79434598D98E427FF6C5AE4B7887
:103D7000052B7FF4C1AE0EFB087391F800A023441D
:103D80009960A3F810C0C3F80CC0BAF1000F3FF45B
:103D9000B3AE51448E428A4624D991F801B0ABF1BA
:103DA0000403012B1ED908EB480807EB8808A04440
:103DB000D8F80C30FBB1BBF1000F3FF49DAE0B788F
:103DC0009A44002B3FF498AEB8F810B056455146CF
:103DD0005B44A8F8103005D99AF801B0ABF10403A0
:103DE000012BE5D892F84430013382F84430B4E72F
:103DF000C9F83C108AE7C8F80C10DCE700283FF44B
:103E00007BAE90F83B20436B013280F83B2023B31C
:103E10000B78002B3FF470AE028F194413448E428E
:103E20009BB203877FF639AF4A78042A3FF435AF57
:103E3000002A3FF461AE0A7832B95DE64A78042A76
:103E400007D042B10A7832B1114413448E429BB27A
:103E5000F4D8038721E703874EE64163D8E70020C3
:103E60005BE600BF70B590F87031044684B04068DE
:103E7000082B0ED143684BB1032204F10801204600
:103E8000984720B9092384F8703100E0012004B07C
:103E900070BD694603F02CF80028F7D100993C4B1F
:103EA000CD69C1E904342870E880C5F8020094F8AF
:103EB0007021931E062BEAD8DFE803F04D444D2B0A
:103EC00011046700D4F848010023092246792046EE
:103ED0006A701A466E8002F047FE04B070BDD4F8D6
:103EE0005C6102230022B4F8620102968DF804306E
:103EF0004FF4D063B4F860618DF8062001AA8DF804
:103F000005002046ADF80C602B8002F05BFE04B08B
:103F100070BD0222B4F86231D4F86C0109268DF824
:103F2000042000228DF805304FF4D0638DF8062070
:103F300001AA02902046ADF80C602B8002F042FEF0
:103F400004B070BD052304F5BA7220466B7002F010
:103F500021FE04B070BD022A4FF00002D4F85401D3
:103F60004FF0010614BF122308238DF8062001AA82
:103F7000ADF80C304FF4D06302902046ADF80460E9
:103F80002B8002F01FFE04B070BD606872E700BFB6
:103F9000953F006070B5154604464068CE6802F053
:103FA000C7FF0DBB94F8703101222A4D013B84F804
:103FB000722105EBC30252685AB131462046904740
:103FC00020B109283CD0082813D170BD94F8703175
:103FD000013B15F8333084F870312046FFF742FF7B
:103FE0000028F2D01C4A0AE00A2D1FD00E2D25D041
:103FF0000B2094F8713163B9000440F00502636846
:104000005B68002BE1D004F108012046BDE8704058
:104010001847013B01200021022284F8713184F805
:104020007201A4F8621184F87021D6E794F8723115
:10403000002BDDD0013B84F87231CEE7074ADEE782
:1040400094F8703105EBC30515F8073C84F870311E
:10405000C3E700BF38CB00600500010005000E007B
:1040600070B591F8756182B00C4605465EBB91F85B
:10407000746146BBD4F8581159B10022284602F0A9
:1040800025FFD4F85811284602F0CAFE0023C4F8D0
:104090005831D4F85C0108B103F0C2FDD4F85401E2
:1040A00003F0BEFD204603F0BBFD03238DF807306F
:1040B0003DB1D5F8D0320DF10702286802219B6985
:1040C000984702B070BD013EA86803F02FFE01239F
:1040D00005EBD60206F00706B34092F8D86226EA4E
:1040E000030682F8D862A86803F022FEC2E700BF88
:1040F0002DE9F04385B0002877D0D0F8D47204467B
:104100000E46002F5DD14FF4BC7003F065FD0546EF
:10411000002861D04FF001084FF0030944601B20D4
:1041200085F8736185F8757185F8728185F87681F7
:1041300085F8719103F050FD0646C5F8540100283A
:1041400058D01236A068C5F86C6103F0EFFD94F802
:10415000D832FF2B5BD194F8D932FF2B40F0B780D7
:1041600094F8DA32FF2B40F0B58094F8DB32FF2B65
:1041700040F0B38094F8DC32FF2B40F0B18094F82B
:10418000DD32FF2B40F0AF8094F8DE32FF2B3DD1C3
:1041900094F8DF32FF2B40F0A980A068012603F0DD
:1041A000C7FDD5F8540103F03BFD284603F038FD68
:1041B000002163680846584A9847304605B0BDE874
:1041C000F08300230D9A02265448136007F0E4FBA5
:1041D000304605B0BDE8F0830C2663680146504ABE
:1041E0009847304605B0BDE8F0830326304605B059
:1041F000BDE8F08303F014FD284603F011FD3146BD
:1042000063683046464A0C269847D6E70627394663
:1042100013F001026ED09E076ED558076FD51A07AE
:1042200070D5DE0671D5980672D55A0661D5DA09C1
:10423000B3D1072210464FF0010902EBC7076218FD
:104240004FF0000809FA00F14F440B4382F8D832CE
:1042500085F87471D4F8D4322B60C4F8D45285F840
:104260007091A06803F064FD2E4B6A4605F5AC71B1
:1042700020460095CDF808808DF80C80019302F05F
:10428000C5FD064698B90223284685F87031FFF728
:10429000E9FD30B1636823B11F4A05F108012846E2
:1042A00098470D9B30461D6005B0BDE8F0830D9B1F
:1042B0004E461D60D5F8540103F0B2FC284603F0C9
:1042C000AFFC6368144A41464046984775E7474645
:1042D00041469DE7022739469AE74F46494697E708
:1042E0000427394694E70527394691E707273946D9
:1042F0008EE7062210469EE7012210469BE7022227
:10430000104698E70322104695E70422104692E7EC
:10431000052210468FE700BF0500010020CB00609A
:1043200005000C00B80B080000283CD070B5B1FAAD
:1043300081F464095CBB91F8703181F87641E3B196
:10434000082B06460D461AD8D1F8581111B122464D
:1043500002F0BCFDD6F8D4329D421A6820D042B19A
:10436000954203D115E09D4215D01A461368002BE3
:10437000F9D129463046FFF773FE002070BD43682F
:1043800063B10222083128469847204670BD0320B9
:1043900070BD1A462B461B681360EAE7184670BDCD
:1043A000C6F8D422E5E70320704700BF90B138B5C6
:1043B0000446806803F0BAFCD4F8D452A06803F035
:1043C000B7FC0DB9284638BD29462046BDE838401F
:1043D000FFF7AABF0320704700283BD0002939D03F
:1043E000F8B5466804460D46B06803F09FFC1F4AC6
:1043F00092F8E832012B01D1964204D0B06803F064
:1044000097FC0120F8BDD2F8D432EBB99068002BAC
:10441000F5D094F8521181B104F108039D421BD0EC
:104420000123A4F1380701E0954216D0DAB21E4606
:104430000133914207EB8312F6D803F079FC002098
:10444000F8BD1B68002BE1D09C42FAD19068002B8C
:10445000DFD1D4E70320704700260223344484F8D8
:10446000643103F065FC0020EAE700BFF02500207E
:10447000002878D02DE9F041466804460D46B06822
:1044800003F054FC464A92F8E832012B01D19642DF
:1044900005D0B06803F04CFC0120BDE8F081D2F8F3
:1044A000D462B442334604D01EB11B680BB19C42A7
:1044B000FBD19068002BEDD094F87681002D5ED072
:1044C00094F85271002F46D004F108039D424CD05D
:1044D0000123A4F1380E01E08D4248D0D9B29C46A8
:1044E0000133B9420EEB8311F6D3B8F1000F35D189
:1044F00094F8523194F8641102292FD0012B15D968
:1045000094F86511022929D0022B0FD094F8661176
:10451000022923D0032B09D094F8671102291DD05A
:10452000042B03D094F86831022B17D0B4423168C1
:1045300032D041B1A14203D129E09C4229D0194691
:104540000B68002BF9D103F0F3FB60682146FFF7FD
:1045500087FD0020A1E7B8F1000FE7D003F0E8FBEA
:104560000020BDE8F081032070474FF0000CA44408
:1045700003238CF86431B8F1000FB9D0EEE7B8F13D
:10458000000FEBD194F85231002BB3D1CEE7314676
:1045900023461B680B60D6E7C2F8D412D3E700BFEE
:1045A000F02500202DE9F043804685B008680F46CD
:1045B000154603F0BBFBD8F80040002C67D02368F9
:1045C000002623F01F03C8F80030386803F0B0FB62
:1045D00001233220AC6101AA2563E063042123603A
:1045E00063616868C4E90333C4E90166C4E9066627
:1045F000C4E90866C4E90A66C4E90D6602F0AEFCC7
:104600002A7D032A4AD06B89DDF804800F2B94BFE2
:104610001F074FF0704732B9B8F1020F18BF47F0CB
:10462000006747F48047AB7C6A46AE8901214FEAB8
:1046300003296868360402F091FC009A46EA0903EF
:1046400001991343022943EA070343EA08336360ED
:1046500028D003AA052168684FF0804602F07EFC4E
:1046600002AA0621686802F079FC039B00200299E7
:104670001B0495F8277095F8282043EAC1533B4363
:1046800043EA02233343A36005B0BDE8F0833868F2
:1046900003F04EFB012005B0BDE8F0833746DDF89E
:1046A0000480C0E76B7D03AA68689E0702F056FC91
:1046B00002AA0321686802F051FCD6E70023F0B596
:1046C000C2E90033046883B0002C00F0B2800F46CA
:1046D000154603E02468002C00F0AB80237D03F036
:1046E000FD03012BF6D101AA04216068E68902F0DE
:1046F00035FC019B022B00F09E80E38B9F42E9D3A7
:10470000FB1A013E3342E5D194F82730D80704D58F
:104710002B7894F8222013442B7094F82830D90772
:1047200004D52B7894F8242013442B7094F8273068
:104730009A0704D56B7894F8222013446B7094F890
:1047400028309B0704D56B7894F8242013446B70B1
:1047500094F827305E0704D5AB7894F822201344F0
:10476000AB7094F82830580704D5AB7894F824201F
:104770001344AB7094F82730190704D5EB7894F8FC
:1047800022201344EB7094F828301A0704D5EB78F4
:1047900094F824201344EB7094F82730DB0604D5FA
:1047A0002B7994F8222013442B7194F82830DE06DC
:1047B00004D52B7994F8242013442B7194F82730D6
:1047C000980604D56B7994F8222013446B7194F801
:1047D0002830990604D56B7994F8242013446B7122
:1047E00094F827305A0604D5AB7994F82220134464
:1047F000AB7194F828305B0604D5AB7994F824208B
:104800001344AB7194F92730002B04DAEB7994F858
:1048100022201344EB7194F92830002BBFF65AAFD5
:1048200094F82420EB791344EB712468002C7FF476
:1048300055AF03B0F0BDE28BBA423FF64BAF082E46
:1048400094F826300ED9BA1AD2009A420ADBD21A4C
:10485000013E32427FF43EAFEA5C94F820100A44F5
:10486000EA5437E7072B3FF635AFF6B2EA5C991901
:1048700094F820000244EA54CBB2072BF6D929E77A
:104880002DE9F84F14468146C06B0D4603F04EFAF1
:104890002369DB0755D5E368DF0752D50026656B32
:1048A000D9F83C00A663666303F042FA002D45D0B8
:1048B000B0462F68D5E909A4A245D346C4F80080C4
:1048C00000F09680534600215A891B68C2F30E02FD
:1048D0009C421144F8D16689D9F83C00C6F30E0613
:1048E0000E4403F023FA99F84930002B79D1C9E935
:1048F00004A4A24505D0DBF800B001335C45DBB26F
:10490000F9D10133D9F83C0089F8493003F010FAA5
:10491000AB68B34209D39E1B0E222B692946EE6079
:104920006869984757B13D46C3E7C5F80C800E2229
:104930002B69294668699847002FF4D10020BDE80B
:10494000F88F2368DE0744D42B78032B41D0D9F8A5
:104950002810D1F84431D1F8402103F4004302F08B
:1049600020021343B3F5004FF3D0202BF1D0D1F840
:10497000403123F02003C1F84031D1F8443118040C
:10498000FBD40123E3602361A36923F0FF03A36148
:10499000D1F844311A0481D4D1F84431D1F84021FE
:1049A00003F4004302F020021343B3F5004FF3D0A9
:1049B000202BF1D0D9F82C30C1F85831D1F8403142
:1049C00043F02003C1F84031D1F844311B04FBD53A
:1049D00064E70123E3602361A36923F0FF03A3617C
:1049E0005CE7D9F81420C2F800A0C9F8144080E7A9
:1049F000002170E72DE9F04F876B85B0002F00F0A4
:104A00009580824603E03F68002F00F08F803A7D5A
:104A1000032AF8D8012303FA02F212F00D0FF2D0A4
:104A2000BD696E6B002EEED00397374613E0AB697D
:104A3000180676D4AB6913F07E0F72D0D5F818B093
:104A4000EB680BB1D90774D5AB6923F0FF03AB61F9
:104A50003746002E65D0BC6A3E68A3681B04E6D5C5
:104A6000A16811F08001E2D17A6A8C46D4F80890EE
:104A7000A242216009F07E0B134607D010464189FF
:104A80000068C1F30E0184428C44F8D1B4F80A8066
:104A9000DAF83C00C8F30E08CDE90123E04403F046
:104AA00045F99AF849C0DDE90123BCF1000F7BD13B
:104AB000A242CAE904247ED00CF1010C5FFA8CFCFE
:104AC0001B680CF101029C425FFA82FCF8D18AF863
:104AD0004920DAF83C0003F02BF9BB683A684345FB
:104AE0002CBFA3EB08030023FB604FF000036A63B5
:104AF000EB874FF03203AB87BBF1000F46D0AB69B9
:104B00001C0603D4AB6923F0FF03AB6119F03E0F21
:104B10003946D7E9043036D00B2237469847002E65
:104B200099D1039F3F68002F7FF471AF05B0BDE8B6
:104B3000F08F9A68120441D41B68002BF9D101232D
:104B40002B61EB60AB6923F0FF03AB613FE0431CDB
:104B50008AF84930DAF83C0003F0EAF8BB683A68B2
:104B600039464B4578692CBFA3EB090300231BF0A2
:104B70003E0FFB603B696A634FF00002EA874FF02B
:104B80003202AA87C8D10A22984761E7039B1B7D9E
:104B900023B9FA691388B3F5817F49D03B690022B4
:104BA00039467869984753E7DAF81400A242026060
:104BB000CAF8144080D10CF1010288E701222A6171
:104BC000EA60AA6922F0FF02AA611B682B617B6A76
:104BD0000022A342226098464BD01A464FF0000CA8
:104BE00051891268C1F30E0194428C44F8D1B4F893
:104BF0000A90DAF83C00C9F30E090193E14403F08E
:104C000095F89AF84900019B60B9CAE90434A342B7
:104C10009DD001304246C0B21268431C9442D8B2C3
:104C2000FAD195E7DAF814201360CAF81440EEE7D9
:104C30009378002BB2D1DAF83830002BAED014794B
:104C4000039802E01B68002BA8D0D97C9A7C42EA2A
:104C5000C112A242F6D1596842689142F2D11A7D3E
:104C6000023A012A9AD89A69936923F00043936122
:104C700094E74FF0000CBAE7022801D006207047F5
:104C800000232DE9F047044613604C2015460F46DB
:104C900002F0A2FF0646002800F02081904B40F26F
:104CA000023107601A468362A0F84410C3F84041FD
:104CB000D2F8403113F00203FAD1D2F8A811DFF88C
:104CC00034C241F00301C2F8A8119CF80000D2F8E8
:104CD0000821002840F0F380824B4FF0080A824FF1
:104CE000012403F5407203F50071B76003F1C008B9
:104CF00003F5107E03F51877736003F55679F360BA
:104D0000316103F2344132638CF8004003F54B7C8F
:104D1000C6E90622C6E90822C3F8808003F5207898
:104D2000C3F820E203F5287EC3F8407203F530771C
:104D3000C3F8608203F58078C3F880E203F5A07EB3
:104D4000C3F8A07203F5C077C3F8C08003F5E0781C
:104D5000C3F800E103F1400EC3F840711F46C3F8E9
:104D6000808103F5087847F880EB03F5387EC3F8B7
:104D7000C001C3F8008203F56178C3F8C0E21F6484
:104D800003F5777786F849A0C3F8E00203F56C7065
:104D9000C6F814E003F5816E7263C2F82C9003F23A
:104DA0003C59C2F8588003F58C68C3F800C303F27D
:104DB0008C4CC2F8840003F59760C2F8B07003F21F
:104DC000E447C2F8DCE003F5A26EC2F8081103F56F
:104DD000AD6103F29453C2F88C01C2F8348106F13C
:104DE0003C00C2F860C1C2F8B871C2F8E4E1C2F890
:104DF0001092C2F83C12C2F8683202F08BFF002811
:104E000064D1214606F1400002F016FF00285AD175
:104E1000D6E902210B6841F00207486823F01F031E
:104E2000F16240F40040F360C2F380034C61C1E9D9
:104E30000344C1E90070002B4ED020461460C3F536
:104E4000806402EB83034FF001084FF00109610811
:104E500003EBC101E3E802898B42FBD124F001039B
:104E60009C4200EB030102D0012342F82130B36AD7
:104E7000D3F80421D10607D5D3F8842122F02A02E1
:104E800042F48052C3F88421D3F80821920703D555
:104E9000D3F84021C3F84021D3F840110020134C2F
:104EA00041F00101124AC3F84011C3F88040D3F821
:104EB00048110A43C3F848212E60BDE8F087B3606B
:104EC0000120BDE8F087F06B02F02EFF304602F0C3
:104ED000A7FE2046BDE8F0871846B0E70C20ECE7B7
:104EE00000400E4000200020001000209F8601009E
:104EF00037000001EC25002010B5826A04460B49FA
:104F000000238068C2F848318842C2F840310AD094
:104F1000E06B02F009FF206C02F0BCFE204602F0BC
:104F20007FFE002010BD024A1370F1E70010002040
:104F3000EC2500202DE9F04F9DB005461446049065
:104F4000C06B149102F0F2FED5F834B0BBF1000F43
:104F500000F08280049ADBF80030D06B536302F0DB
:104F6000E7FE20680023CBF80400CBF80030CBF834
:104F70002830CBE90433CBE90233CBE90633CBE964
:104F80000833637A8BF81230A37A8BF81330227AC5
:104F9000E388ABF80E2016AAABF80C30E37A8BF856
:104FA0001430237B0133DBB2032B88BF03238BF840
:104FB00015300023A1888BF81130ABF80A100421BA
:104FC000CBF8183001F0CAFF9BF8142002F0FD0165
:104FD000012920D01699BBF80E30022901D0DB0040
:104FE0009BB2022AABF81C3000F08280032A3CD02E
:104FF000002A7DD00124049DE86B02F097FE6B6BC4
:10500000E86BCBF80030C5F834B002F091FE2046D2
:105010001DB0BDE8F08F012ABBF80E30169800F0E5
:10502000EF82022800F0D882D9B2012940F2B4837D
:1050300011F0F00F00F0EE821F0600F1CD844E0655
:1050400000F1CD8301F0200100290BBF80234FF434
:10505000807310212021A1E3049B0224D86B02F06D
:1050600067FE20461DB0BDE8F08F049BDBF804000E
:1050700093F84630022B63D0002319AA0C21994DD6
:10508000CDE9193301F06AFF199B1AAA0421C3EB79
:10509000C304DBF80400A5FB045403EB14131993B9
:1050A00001F05CFFBBF80C104DF6C0238E4A03FBE9
:1050B00001F39BF814408D49A2FB0323012C9DF8BA
:1050C00068204FEA93039BF8130003F65F43A1FBAC
:1050D00003134FEA931300F0AC82022A00F0E4833A
:1050E000002A00F05E83012A00F06F840124B9E2F7
:1050F000049B5A46194603F10C003C31FFF752FA63
:1051000000287FF477AF049BDBF81820DB6A42F0BD
:105110000201186810601960049D0024E86B02F019
:1051200005FEAB6BE86BCBF80030C5F838B002F089
:10513000FFFD149B2046C3F800B01DB0BDE8F08F02
:10514000042117AA01F00AFFBBF80C209BF81510E8
:105150004DF6C023644C01FB02F1179A634803FB30
:1051600001F39BF81350A4FB0313D1B29B0802294F
:1051700003F65F43A0FB03034FEA931300F09A8307
:10518000002900F01383012900F02A844FF0010860
:10519000022A00F0958317AA0C21DBF8040001F025
:1051A000DDFE179B4F4818AAC3EBC3030521A0FBE4
:1051B0000303DBF8040008EB1313019301F0CEFEA8
:1051C000BBF80E209BF813300092BBF80C00002BAC
:1051D00040F0CE834DF6C023434A444C40F62301B1
:1051E00003FB00F34248A2FB0323424A9B0803F659
:1051F0005F43A4FB03439B0901FB0303934240F27B
:10520000DB8302F1864202F5492202F64442A2FB08
:1052100003239B0C01330A934FF00108009B002BE2
:1052200000F0F883049B05220DF1680ADFF8CC90AA
:105230003833CDF840B0564603270B93CB462E4B60
:1052400007930623CDE91232072311930423039316
:1052500001230693039B0022139DD9B2DDF84890E9
:10526000AB42E8B2AC46A3F10404B4BF4FF0000C6B
:105270004FF0010C072808910F94A1F1040488BF96
:105280004FF0000C5FFA89F14B45DDF844E0E0B2E5
:105290004C46B4BF00240124072902925FFA8EF223
:1052A000159088BF002473457046A3F10203B4BF74
:1052B00000200120072A4FF000059DF81820C14664
:1052C00088BF0020CDF830C00D940E900992059350
:1052D000049BDDF860809C6B0023CDE91A3394B900
:1052E000B2E000BF398EE338ABAAAAAAD34D621050
:1052F000D4090E003F420F0070CB006078CB0060F5
:105300002468002C41D0237D03F0FD03012BF7D14D
:1053100019AA0521606801F021FE199B9845EFD17B
:1053200019AA0421606801F019FE199B022BE7D02D
:10533000E38B9D42E4D3E289EB1A013A1A42DFD1B2
:1053400094F8262094F820000132217D1AF80230CA
:1053500001290344DBB20AF80230D1D094F8263098
:1053600094F8201002331AF803200A440AF80320A4
:1053700094F8263094F8201003331AF803200A44D6
:105380000AF803202468002CBDD19DF868809DF8A0
:105390006920B8F17D0F9DF86AE09DF86BC09DF81B
:1053A0006C409DF86D009DF86E1008D942444FF096
:1053B0007D087D3A8DF86880D2B28DF869207D2A0B
:1053C00009D972444FF07D0E7D3A8DF869E05FFA9D
:1053D00082FE8DF86AE0BEF17D0F0BD9ACF17D0C39
:1053E0004FF07D080EEB0C028DF86A805FFA82FCAC
:1053F0008DF86BC0BCF17D0F07D97D3C7D226444E4
:105400008DF86B20E4B28DF86C407D2C07D97D3887
:105410007D2220448DF86C20C0B28DF86D007D286F
:1054200007D97D397D2201448DF86D20C9B28DF8F0
:105430006E10322908D99DF86F203220323A8DF84B
:105440006E0011448DF86F10069B9F4218DB079B7E
:1054500072785978019B1A449142C0F0C781099A29
:1054600008E013F8081C0198B84B01449B5C994272
:1054700000F2BC8101321CABD2B297421344F0DA85
:10548000524629460B98FFF719F932780A9B9BF888
:1054900000101A448A4200F3A981059B1946039B18
:1054A000994234DCB2789BF802104A449142C0F22F
:1054B0009D819F422BDCF2789BF803104A44914275
:1054C000C0F29481089B072B21D832799BF80410F5
:1054D0004A449142C0F28A810C9BC3B172799BF815
:1054E00005104A449142C0F281810D9B7BB1B27993
:1054F0009BF806104A449142C0F278810E9B33B16A
:10550000F2799BF807104A449142C0F26F81009BE8
:105510001D44ADB2B5F5806FFFF4DAAE03980123F8
:105520000599C8460246DDF840B081420F9803FA5B
:1055300000F3CCBF00210121DBB2029C00208BF8DC
:105540002730ABF81E40159C8BF828008BF82640BE
:10555000002938D0089B0598591E0123C9B2834001
:1055600003980D46DBB281422BDC0124081904FAB2
:1055700005F5C0B22B439042DBB222DC072820D8CD
:1055800004FA00F08D1C0343E8B20728DBB218D8F8
:10559000904216DC04FA00F5C81CC0B22B439042BE
:1055A000DBB20EDC07280CD8043104FA00F0C9B2D3
:1055B00003439142DBB204DC072902D88C40234329
:1055C000DBB28BF82830019BABF82480ABF820309D
:1055D0000A9BABF822308BE0013B01FA03F39BB24C
:1055E000ABF80E30072B3FF6FCAC0499886AD0F874
:1055F000401121F47F0141EA0341C0F84011F0E479
:10560000013B022802FA03F39BB2ABF80E307FF4A1
:10561000E6ACE7E70D0700F1D5814C0700F1E38028
:1056200001F0020100290BBF0823102301210221F0
:10563000B4E0022A00F0CD80A2B90128444A02FB5E
:1056400003F20CBF434B444B1344444A93427FF64E
:105650004DAD02F1864202F5492202F64442A2FB18
:1056600003239C0C199BBBF81C701C44BBF80E60F8
:105670001994002F00F015810025049BAC46986B0F
:105680002A46002800F0BD800346002193F814E06C
:105690000EF0FD0EBEF1010F10D1B3F81EE0724501
:1056A000A2EB0E080AD3B3F80EE00EF1FF3E1EEA9D
:1056B000080F03D1B3F820E0714489B21B68002BB6
:1056C000E4D12144B1F5617F00F2A080324492B26E
:1056D000B2F5806FD5D3002305F00705ABF81EC0E7
:1056E0008BF82650ABF820408BF827308BF8283009
:1056F000049C5A4604F13C0104F10C00FEF752FFF1
:1057000000287FF477ACBBF81EC0BCF5806FBFF4F7
:1057100003ADBBF81C704FF0010ADBF8180007F16D
:10572000070EA66840F002094FEAEE0E06EB8C0663
:105730004FEA8E0834464EB33268D30700F1A98091
:1057400022F01F03984215D120E000BF70CB00600B
:10575000544601004CF46E0054A65F003F420F0017
:10576000A3B11A680C46D50722F01F0300F19280FE
:1057700098420BD002F006051946022DF0D11D6BA0
:10578000AD8BBD42EDD80260C4F80090F4444644AD
:10579000BCF5806FCED3BFE489B2CB00ABF80E105E
:1057A0001FE4A549A54A01FB03234EE7A248A349EC
:1057B00000FB0313A2498B427FF6E8AC01F186415E
:1057C00001F5492101F64441A1FB03134FEA934837
:1057D000DEE440F623019B4A01FB032335E74FF447
:1057E00000734021DAE720230421D7E7029D009BC4
:1057F0000135ADB2AB4216D9B5F5806F36D2029500
:1058000066E52146B1F5617F7FF660AF0135ADB247
:10581000BD4246D2EA08B2F5806F9446FFF431AF3C
:105820004FF4005557E7069AC846039B01360132EC
:105830000BF1010B013301370692079A092B0393F1
:1058400002F101020792119A02F101021192129AD9
:1058500002F101021292139A02F1010213927FF4F3
:10586000F9ACDDF840B00F24FFF7C5BB0398012366
:105870000599C8460246DDF840B081424FF4806089
:105880000290C8BF00210F98D8BF01218340DBB22E
:1058900053E63146C0F800A0C1F8009076E7DDF885
:1058A00004B00F24FFF7A7BB40F62301664A01FBB3
:1058B0000323CAE640F62300634900FB031379E79C
:1058C000049B0DF1680ABBF81C9000213833524646
:1058D00018461E46FEF7F2FEB9F1000FE1D0002394
:1058E000CDF804B06427D3461D46009319461C46E4
:1058F000B24606E0B4F5005F37D204F00705534B1B
:105900005F5DE6085A4650468E42314601D0FEF7AA
:10591000D5FE1CAB4C4431461D44A4B215F8082CEE
:105920004244BA42E6DD009C0134A4B2A145009491
:10593000B5D9B4F5005FE0D34FF40053DDF804B0FF
:105940000093009BBBF81C00DA0803F0070307284C
:10595000ABF81E208BF8263049D9012202FA03F356
:105960008BF82730ABF82080C2E6DDF804B0E8E71A
:105970004DF6C023364A374C40F6230103FB00F3B3
:105980003148A2FB03232E4A9B0803F65F43A4FB86
:1059900003439B0901FB0303934210D902F18642A2
:1059A00002F5492202F64442A2FB03239B0C03F1B9
:1059B000010801230A9331E402230A932CE44FF0F7
:1059C0000208F6E740230821E8E601281DD01A491D
:1059D000214A01FB032338E64FF480638021DDE692
:1059E000012D23D014481C4900FB0313E2E6C0B28A
:1059F0000022012404FA03F10344DBB20A43072B1B
:105A0000D2B2F7D98BF82720ACE71449144A01FB2E
:105A100003231AE619464FF4807203250423ABF8DA
:105A20001E10ABF8262029461A469EE50B480C4965
:105A300000FB0313BEE600BF54460100E4038B00E5
:105A40003F420F003CB70900D4090E0078CB00603C
:105A5000ABAAAAAAD34D621054A65F003E530A0017
:105A60009CB1DB03F8B50B7D0C460546022B77D0C5
:105A7000032B28D0002B73D0E86B02F057F9AB6BE7
:105A80009C4262D06BB11A68944219D04AB1136833
:105A90009C4214D02BB11A68A24211D01346002B9D
:105AA000F9D1E86B02F044F9E86B02F03FF96B6B57
:105AB000E86B23606C6302F03BF90020F8BD1346ED
:105AC00022681A60EDE7CF8B8E69B7F5806F23D21D
:105AD000B1F81CC081680CF1070C01EB87014FEA9B
:105AE000EC0C4FEA8C0E084689B10B68DA070ED42D
:105AF00023F01F039E4207D12AE01A6822F01F03F9
:105B0000D20704D49E4223D01846002BF5D1674417
:105B10007144B7F5806FE6D33368324604F114015F
:105B2000284643F001033360FEF7AAFEE86B02F05B
:105B3000FDF8EB68E86B3360EE6002F0F9F8E86BB3
:105B400002F0F4F8AB6B9C429CD12368AB63A8E7EE
:105B5000674433687144B7F5806F0360C3D3DBE7F4
:105B6000E86AA669036823F01F03B34212D0014616
:105B70000A6822F01F03D20706D49E4244D09842FE
:105B8000194601D0002BF3D10123324604F1140150
:105B90002846C8E7AA6AD2F84431D2F8401103F483
:105BA000004301F020010B43B3F5004FF3D0202B4D
:105BB000F1D0D2F8403123F02003C2F84031D2F8BE
:105BC00044311B04FBD4D2F8443131681F04016016
:105BD000DAD4D2F84431D2F8401103F4004301F092
:105BE00020010B43B3F5004FF3D0202BF1D0C2F8C6
:105BF0005801D2F8403143F02003C2F84031D2F8C6
:105C000044311904FBD5BFE7AA6AD2F84431D2F86F
:105C1000407103F4004307F020073B43B3F5004F06
:105C2000F3D0202BF1D0D2F8403123F02003C2F87A
:105C30004031D2F844311B04FBD433680B60D2F8F6
:105C400044311F04A0D4D2F84431D2F8401103F4F7
:105C5000004301F020010B43B3F5004FF3D0202B9C
:105C6000F1D0C2F85801D2F8403143F02003C2F815
:105C70004031D2F844311904FBD585E72DE9F04FC6
:105C800091F814A083B0BAF1030F05D8012303FAE9
:105C90000AF313F00D0F03D1002003B0BDE8F08F1D
:105CA0001646054689469368BAF1000F7ED1002B4F
:105CB000C06B8F690CBF0224032402F037F895F8FB
:105CC0004930A342C0F04B811B1B2869621EDCB225
:105CD000804685F849400368C0F800A019464FF097
:105CE000000C0360013A1B680846C1F800C0194661
:105CF000F7D12B6104B96C61E86B02F019F899F8DF
:105D00001430002B73D1F36901249A4A03F5805EA5
:105D100003F5804103F5005C03F540500EEA020EE6
:105D20000CEA020C10400A40B168C8F814C0C8F868
:105D30001C20C8F81800C8E9033ED8F80030DFF886
:105D400048E21A46C8E9014E5C60002900F0FB8079
:105D500096F820E00904BEF1000F40F00881864863
:105D6000084372684FF0010A824902F5805902F532
:105D7000005C986002F5405402F5804009EA010990
:105D80000CEA010C0C400140DA600020C3E9049CDD
:105D9000C3E906411B68C3F804A01A46D860BEF1E7
:105DA000000F40F0E180C3F808E0CEE0C3F30D023D
:105DB0009B0BC06B002A0CBF984603F101088F694A
:105DC00001F0B4FF95F84940A04500F2C880A4EB6B
:105DD000080428690022E4B285F84940036802609B
:105DE000B8F10102194680467FF479AF81E799F84E
:105DF00011A096F820304FEACA7AD6E901128A1823
:105E0000002B73D04346CDF804805A48B8469646D6
:105E1000A946B34600E0134601F58042012401F58E
:105E2000805701F50056724594465C6001F5405577
:105E300028BFF446024007400640ACEB0104054091
:105E4000DA614AEA04441A68D960614644F4586445
:105E50001F615E619C609D61002ADCD144F40044B6
:105E600001214D465E461A4647469C60DDF8048097
:105E7000196000217B6BC6E909823160002B6BD071
:105E8000BB6B1E60BE63E86B103701F04FFF3B68D1
:105E90001BB904E01F461B680BB1D907FAD5C7F838
:105EA0000080E86B01F044FFA96AD1F844311A047C
:105EB0003FF5F2AED1F84431D1F8402103F400436C
:105EC00002F020021343B3F5004FF3D0202BF1D0A2
:105ED000EB6AC1F85831D1F8403143F02003C1F8E2
:105EE0004031D1F844311B04FBD5D5E64346CDF80B
:105EF00004802048B8469646A946B34600E01346BB
:105F000001F58042012401F5805701F500567245E4
:105F100094465C6001F5405528BFF44602400740B6
:105F20000640ACEB01040540DA614AEA04441A6811
:105F3000D960614644F448641F615E619C609D6164
:105F4000002ADCD18AE7C3E902110C49996019687B
:105F500041F0010119608CE7BE637E6393E7E86B53
:105F600001F0E6FE012098E605499960EFE7054853
:105F70000843F6E600F0FFFF80000080808100808B
:105F80008080008080010080800208002DE9F04FB1
:105F900091F814A083B0BAF1030F05D8012303FAD6
:105FA0000AF313F00D0F03D1002003B0BDE8F08F0A
:105FB0001646054689469368BAF1000F7ED1002B3C
:105FC000C06B8F690CBF0224032401F0AFFE95F86B
:105FD0004930A342C0F04B811B1B2869621EDCB212
:105FE000804685F849400368C0F800A019464FF084
:105FF000000C0360013A1B680846C1F800C019464E
:10600000F7D12B6104B96C61E86B01F091FE99F84E
:106010001430002B73D1F36901249A4A03F5805E92
:1060200003F5804103F5005C03F540500EEA020ED3
:106030000CEA020C10400A40B168C8F814C0C8F855
:106040001C20C8F81800C8E9033ED8F80030DFF873
:1060500048E21A46C8E9014E5C60002900F0FB8066
:1060600096F820E00904BEF1000F40F00881864850
:10607000084372684FF0010A824902F5805902F51F
:10608000005C986002F5405402F5804009EA01097D
:106090000CEA010C0C400140DA600020C3E9049CCA
:1060A000C3E906411B68C3F804A01A46D860BEF1D4
:1060B000000F40F0E180C3F808E0CEE0C3F30D022A
:1060C0009B0BC06B002A0CBF984603F101088F6937
:1060D00001F02CFE95F84940A04500F2C880A4EBE1
:1060E000080428690022E4B285F849400368026088
:1060F000B8F10102194680467FF479AF81E799F83B
:1061000011A096F820304FEACA7AD6E901128A180F
:10611000002B73D04346CDF804805A48B8469646C3
:10612000A946B34600E0134601F58042012401F57B
:10613000805701F50056724594465C6001F5405564
:1061400028BFF446024007400640ACEB010405407E
:10615000DA614AEA04441A68D960614644F4586432
:106160001F615E619C609D61002ADCD144F40044A3
:1061700001214D465E461A4647469C60DDF8048084
:10618000196000217B6BC6E909823160002B6BD05E
:10619000BB6B1E60BE63E86B103701F0C7FD3B6848
:1061A0001BB904E01F461B680BB1D907FAD5C7F825
:1061B0000080E86B01F0BCFDA96AD1F844311A04F3
:1061C0003FF5F2AED1F84431D1F8402103F4004359
:1061D00002F020021343B3F5004FF3D0202BF1D08F
:1061E000EB6AC1F85831D1F8403143F02003C1F8CF
:1061F0004031D1F844311B04FBD5D5E64346CDF8F8
:1062000004802048B8469646A946B34600E01346A7
:1062100001F58042012401F5805701F500567245D1
:1062200094465C6001F5405528BFF44602400740A3
:106230000640ACEB01040540DA614AEA04441A68FE
:10624000D960614644F448641F615E619C609D6151
:10625000002ADCD18AE7C3E902110C499960196868
:1062600041F0010119608CE7BE637E6393E7E86B40
:1062700001F05EFD012098E605499960EFE70548C9
:106280000843F6E600F0FFFF800000808081008078
:10629000808000808001008080020800002800F0DB
:1062A000F88001392DE9F04F044683B015460429E2
:1062B00000F2C981DFE811F05B00E400BF00C90013
:1062C0000500C06B966901F031FDA26AD2F8443135
:1062D0001B040DD47168A44BAA890B4043EA024306
:1062E0007360E06B01F024FD002003B0BDE8F08F87
:1062F000D2F84431D2F8401103F4004301F02001F8
:106300000B43B3F5004FF3D0202BF1D0D2F840313E
:1063100023F02003C2F84031D2F844311F04FBD4EB
:106320007068914BA989034043EA01437360D2F836
:1063300044311804D5D4D2F84431D2F8401103F4D2
:10634000004301F020010B43B3F5004FF3D0202BA5
:10635000F1D0E36AC2F85831D2F8403143F020035B
:10636000C2F84031D2F844311904FBD5B9E7D2F86C
:10637000008098F81430032BB6D8012202FA03F3F8
:1063800013F00D0FB0D0D8F81860736B002BABD0A2
:106390006F68002F00F039819F4200F03281E06B7E
:1063A00001F0C4FCF368D807019300F1C6809B6834
:1063B000190640F1C28098F81430032B00F03681A2
:1063C000A26AD2F84431D2F8401103F4004301F03C
:1063D00020010B43B3F5004FF3D0202BF1D0D2F8BE
:1063E000403123F02003C2F84031D2F844311B047D
:1063F000FBD4F36843F00103F360336943F0010316
:106400003361D2F844311B0476D57A6A019DE807DE
:106410000BD4AA4200F08C802B4602E0934200F09D
:10642000888018461B68D907F8D5BB6A9A4200F0E5
:1064300089801268EBE7836A0020D3F84C31C3F3FC
:10644000CA03136003B0BDE8F08F9669012101AA69
:10645000686800F083FD7368019A43F6F070A16AE2
:1064600013437360D1F84C21C2F30D02D1F84C31C3
:10647000C3F30D039B1A03F580430342F6D033E7C1
:106480001378013B032B00F2DC80DFE803F02712D6
:10649000041E0320704790F84530032B7FF424AF8F
:1064A000826A0020D2F8483143F00403C2F8483130
:1064B0001BE7826A0323002084F84530D2F8483174
:1064C00043F00403C2F848310FE7826A0020D2F893
:1064D000483123F00403C2F8483106E7826AD2F853
:1064E000843123F02A0343F48073C2F88431D2F854
:1064F0008431D905FBD4F7E6D2F84431D2F8401103
:1065000003F4004301F020010B43B3F5004FF3D037
:10651000202BF1D0E36AC2F85831D2F8403143F071
:106520002003C2F84031D2F844311D04FBD56CE79A
:1065300001A813680360019D77E73569EA070195B3
:106540007FF539AF736B9F426DD093B11A68974254
:106550000DD072B113689F4208D053B11A689742A8
:1065600005D01346F9E700BFFFFF00F813463A686D
:106570001A60E06B01F0DCFB0021D7E909BAD345D2
:10658000D946CAF8001007D05B465A891B68C2F387
:106590000E029A451144F8D1BAF80A80E06BC8F3AC
:1065A0000E08884401F0C2FB94F84930002B34D126
:1065B000C4E904BAD34542D00133DBB2D9F8009024
:1065C0005A1CCA45D3B2F9D184F84920E06B01F0D6
:1065D000AFFBBB680E223946434578692CBFA3EB5D
:1065E00008030023FB603B699847B36923F0FF036E
:1065F000B361002D3FF478AEE8073FF575AE356125
:1066000072E6B36B9F427FF4CAAE324608F11401C2
:106610002046FEF735F9002067E66269C2F800B04F
:10662000C4F814A0C6E73B687363A2E7F36843F0BD
:106630000103F360336943F001033361E5E65A1C5B
:10664000C2E7012051E608204FE600BFD8B1002381
:10665000FF212DE9F04F87B0056804AA286C00924D
:106660001A4601F033FB58B9049E95F845003407EB
:1066700073D4F30600F1E280022805D0F30718D4A2
:1066800007B0BDE8F08F7047B10700F1FB817207DA
:10669000F6D5AC6A032600222868D4F848311146A2
:1066A00023F00403C4F8483185F84560FDF77EFE09
:1066B000E6E7AB6AD3F8442117041AD4D3F844218F
:1066C000D3F8401102F4004201F020010A43B2F570
:1066D000004FF3D0202AF1D0EA6AC3F85821D3F84A
:1066E000402142F02002C3F84021D3F84421140491
:1066F000FBD5D3F8442156041ED4D3F84421D3F853
:10670000401102F4804201F010010A43B2F5804FBB
:10671000F3D0102AF1D0AA68C3F85421D3F840214D
:10672000D00605D4D3F8402142F01002C3F840212E
:10673000D3F844215104FBD5012205AC002395F880
:1067400046102868CDE900241A46FDF7D1FC002840
:1067500096D1022385F8453092E7AA6AD2F88431AF
:10676000990716D5D2F84C11C1F30D01D2F8843136
:106770009B0707D5D2F8843123F02A0343F00203A4
:10678000C2F88431D2F84C315B1AC3F30D03082BE5
:10679000ECD9D2F88411431E11F00101DBB200F0F4
:1067A0003181012B7FF665AF652043F6F874D2F88E
:1067B0004C11C1F30D01D2F84C31C3F30D035B1A38
:1067C00003F580432342F6D0D2F88431DF0740F14D
:1067D00061810138EBD1D2F8843123F02A0343F4EC
:1067E0008073C2F88431D2F88431DC05FBD4D2F84E
:1067F0008431C3F38163022B85F8463000F04E816B
:10680000D2F84C11C1F30D01D2F84C315B1AC3F32D
:106810000D03572BF8D90121286C01F049FAA96A18
:106820000122049ED1F88430104643F04143C1F860
:10683000843085F84520F3067FF520AFAC6B002C43
:106840003FF41AAF4FF0320901E02468FCB1237D18
:106850000BB1022BF9D1A669D6F83480B8F1000F3C
:10686000F3D0022815D1B3691F0677D5F36806F176
:10687000180CDCF80020F18FC2F30E428A4277D068
:1068800092B22468A6F83C90F287002CDFD1049ED7
:10689000F2E60122D8F8283032619A46B26922F035
:1068A000FF02B2617BB19A68170451D4B26B9A426D
:1068B00006D14DE09A6810044AD4B26B934247D097
:1068C0001B68002BF6D1D8F8243000225345CAF8B3
:1068D00000201F4600F0DB801A464FF0000C508964
:1068E0001268C0F30E0052458444F8D1BAF80AB0D9
:1068F000E86BCBF30E0B0393E34401F017FA95F822
:106900004900039B78BBC5E9043A534504D03F686E
:1069100001305745C0B2FAD1431CE86B85F84930C5
:1069200001F006FAD8F80830D8F800000B225B45D1
:1069300041462CBFA3EB0B030023C8F80C30706357
:10694000A6F83C90D8E90430984795F845007CE7D4
:106950001A68D207B7D41B683361B4E7D8F8283077
:1069600003F1080C85E76A691360C5F814A0CCE749
:10697000B18F013989B2B187B18F89B200297FF413
:1069800064AFAF6AD7F84411D7F840E101F4004191
:106990000EF0200E41EA0E01B1F5004FF2D0202991
:1069A000F0D0D7F8401121F02001C7F84011D7F8F6
:1069B00044110904FBD4DCF80010C1F30E418A42F3
:1069C00073D0D7F844311B043FF53FAFD7F84431BB
:1069D000D7F8402103F4004302F020021343B3F53B
:1069E000004FF3D0202BF1D0EB6AC7F85831D7F81D
:1069F000403143F02003C7F84031D7F844311E043A
:106A0000FBD522E7012B3FF634AE95F84400FCF7A6
:106A1000A7FDAA6AD2F84431D2F8401103F400432A
:106A200001F020010B43B3F5004FF3D0202BF1D040
:106A3000D2F8403123F02003C2F84031D2F844317B
:106A40001804FBD4D2F84431D2F8401103F4804347
:106A500001F010010B43B3F5804FF3D0102BF1D0B0
:106A6000D2F8403123F01003C2F84031D2F844315B
:106A70005904FBD40421286C01F01AF9049E95F8FE
:106A80004500F6E52846FDF7B5FF049EFFE54FF00B
:106A9000000C2BE7032085F84500CCE6012195F892
:106AA0004400FCF75DFDAA6AAAE60122D8F828A0F6
:106AB0003261B26922F0FF02B261D7F844211104B9
:106AC0003FF5F0AED7F84421D7F8400102F4004278
:106AD00000F020000243B2F5004FF3D0202AF1D09D
:106AE000EA6AC7F85821D7F8402142F02002C7F8D7
:106AF0004021D7F844211204FBD5D3E6002830D03A
:106B000038B50468174D03E04A0715D4CB011AD4F1
:106B1000A26AD2F84431D2F848110B402B60FBB185
:106B200098071946C2F84431EED00221206C01F0DA
:106B3000BFF829684A07E9D50821206C01F0B8F8A8
:106B40002968CB01E4D51021206C01F0B1F8A26ACC
:106B5000D2F84411D2F848310B402B60002BDFD122
:106B600038BD7047E825002038B50C460546C86991
:106B7000D5F85811C38062602246A360686800F0AF
:106B800059F900B938BD2146686800F0D1F90120F3
:106B900038BD00BF70B5002316780C46C96905469C
:106BA0004E802246CB80D0F858114068C4E90133AA
:106BB00000F040F900B970BD2146686800F0B8F9EE
:106BC000012070BD70B50546108813460C4640BACA
:106BD0000A46C9695E68488098781B898880CB809E
:106BE0006868D5F85811C4E9016300F023F900B9C9
:106BF00070BD2146686800F09BF9012070BD00BFA0
:106C00002DE9F04383B07C4C06460F4601A8904620
:106C100001F008F894F8E832012B00F0BC8023461C
:106C200004F53B71002243F8042B8B42FBD14FF05B
:106C30000109019884F8E89200F0FAFF6F4BB21E48
:106C400003F1080003F1100103F11805A362606568
:106C500003F12000C4F8801003F12801C4F8AC50FF
:106C600003F13005C4F8D80003F13800C4F804116A
:106C700003F14001C4F8305103F14805C4F85C0148
:106C800003F15000C4F8881103F15801C4F8B4515D
:106C90004A4503F16005C4F8E001C4F80C1203F1A1
:106CA000680003F1700103F17803C4F83852C4F8A6
:106CB0006402C4F89012C4F8BC3277D9D4F8D05228
:106CC000002D77D02B68002B6CD06B68002B69D01F
:106CD000AB68002B66D0EB68002B63D02B69002BD0
:106CE00060D06B69002B5DD0AB69002B5AD00025BA
:106CF000434884F8E962C4F80480C4F8D45201F02F
:106D000009F800286ED13F4A3046D4F8D03202F15B
:106D10002C0602F1580502F18401C4F8CC22E66089
:106D200002F1B006A56302F1DC05616602F584712B
:106D3000C4F8906002F59A76C4F8BC5002F5B075BC
:106D4000C4F8E81002F5C671C4F8146102F5DC76E7
:106D5000C4F8405102F5F275C4F86C1102F50471E3
:106D6000C4F8986102F50F76C4F8C45102F51A759B
:106D7000C4F8F01102F525710C3AC4F81C62C4F88D
:106D80007412C4F8485211461B689847E0B923684A
:106D9000D3B13C6003E0019800F04AFF032003B048
:106DA000BDE8F083012003B0BDE8F083164DC4F8C0
:106DB000D0528DE701A800F035FF019884F8E85221
:106DC00000F036FF0620EAE7A06800F0ADFF01A85A
:106DD00000F028FF0023019884F8E83200F028FF33
:106DE0000120DCE701A800F01DFF019884F8E852BB
:106DF00000F01EFF0120D2E7F0250020DC28002053
:106E0000F8250020FC25002080CB006028B122B1AD
:106E1000D0F8D03200689B6818470320704700BF45
:106E200028B121B1D0F8D0320068DB6818470320C0
:106E3000704700BF002A18BF002970B51FD0B0FAF4
:106E400080F35B09DBB91446D26905460E4684F827
:106E50002130E36023601378DB0984F820308068F8
:106E600000F064FFD5F8D032224631461B6928680D
:106E700098470446A86800F05BFF204670BD0324D5
:106E8000204670BD002A18BF002970B51AD0B0FA8C
:106E900080F35B09B3B91546012204460E4685F816
:106EA0002020EB60806800F041FFD4F8D0322A4601
:106EB00031465B69206898470546A06800F038FFB6
:106EC000284670BD0325284670BD00BF70B169B16A
:106ED000134610B5D0F8D04282B0006800916A46DF
:106EE00001930121A369984702B010BD03207047A8
:106EF000E0B170B5B1FA81F4640984B905468068DF
:106F00000E4600F013FFD5F8CC3233604BB11B684E
:106F1000A868C5F8CC3200F00BFF204670BD0320F6
:106F200070BDA86800F004FF012070BD0320704709
:106F300090B179B138B5054680680C4600F0F6FE90
:106F4000D5F8CC32A8682360C5F8CC4200F0F0FE3A
:106F5000002038BD084670470320704768B162B111
:106F600001390E2941D8DFE801F00F141417141469
:106F70001C2024292F14353B0A0004207047B0F848
:106F8000603100201360704790F875310020136065
:106F9000704700201060704790F873310020136034
:106FA000704701230020136070474368002013607E
:106FB0007047D0F85831002013607047D0F8543132
:106FC00000205B8913607047D0F8543100201B8982
:106FD00013607047B0F862310020013B13607047C6
:106FE000D0F85C310020136070470120704700BF6B
:106FF00008B501F04BF808BD08B501F09BF808BDD5
:1070000008B501F0EBF808BD08B501F03BF908BD83
:1070100008B501F08BF908BD08B501F0DBF908BD32
:1070200008B501F02BFA08BD08B501F07BFA08BDE0
:1070300008B501F0CBFA08BD08B501F01BFB08BD8F
:1070400008B501F06BFB08BD08B501F0BBFB08BD3E
:1070500008B501F00BFC08BD08B501F05BFC08BDEC
:1070600008B501F0ABFC08BD08B501F0FBFC08BD9C
:1070700008B5FBF7B7F808BD08B5FBF7B3F808BDCE
:1070800008B5FBF7AFF808BD08B5FBF7ABF808BDCE
:1070900008B502F0DBFB08BD08B502F0E3FB08BD54
:1070A00008B502F0EBFB08BD08B502F0F3FB08BD24
:1070B00008B5FBF797F808BD08B5FBF793F808BDCE
:1070C00008B502F031FA08BD08B502F05DFA08BD56
:1070D00008B5FBF787F808BD08B5FBF783F808BDCE
:1070E00008B5FBF77FF808BD08B5FBF77BF808BDCE
:1070F00008B5FBF777F808BD08B5FBF773F808BDCE
:1071000008B5FBF76FF808BD08B5FBF76BF808BDCD
:1071100008B5FBF767F808BD08B5FBF763F808BDCD
:1071200008B5FBF75FF808BD08B5FBF75BF808BDCD
:1071300008B5FBF757F808BD08B5FBF753F808BDCD
:1071400008B5FBF74FF808BD08B5FBF74BF808BDCD
:1071500008B5FBF747F808BD08B5FBF743F808BDCD
:1071600008B5FBF73FF808BD08B5FBF73BF808BDCD
:1071700008B5FBF737F808BD08B5FBF733F808BDCD
:1071800008B5FBF72FF808BD08B5FBF72BF808BDCD
:1071900008B5FBF727F808BD08B5FBF723F808BDCD
:1071A00008B5FBF71FF808BD08B502F095FE08BD4D
:1071B00008B502F085FE08BD08B5FBF713F808BD59
:1071C00008B5FBF70FF808BD08B5FBF70BF808BDCD
:1071D00008B5FBF707F808BD08B5FBF703F808BDCD
:1071E00008B5FAF7FFFF08BD08B5FAF7FBFF08BDC1
:1071F00008B5FAF7F7FF08BD08B5FAF7F3FF08BDC1
:1072000008B5FAF7EFFF08BD08B5FAF7EBFF08BDC0
:1072100008B5FAF7E7FF08BD08B5FAF7E3FF08BDC0
:1072200008B5FAF7DFFF08BD08B5FAF7DBFF08BDC0
:1072300008B5FAF7D7FF08BD08B5FAF7D3FF08BDC0
:1072400008B5FAF7CFFF08BD08B5FAF7CBFF08BDC0
:1072500008B5FAF7C7FF08BD04207146084202D0FE
:10726000EFF3098001E0EFF3088081690A884BF6AB
:10727000AB639A4200D0FEE70231816120210160B8
:10728000704700BF93B2013B70B5144605460E46E9
:10729000042B13D8DFE803F00D0306120F00084893
:1072A00004F07AFB224631462846BDE8704000F0E3
:1072B000AFBB0448F4E7044804F06EFB002070BD47
:1072C000DCCB0060C8CB0060F0CB00602DE9F04162
:1072D000C1F30022074686B0274B42EA470200204E
:1072E00059701A251A7002210493002200230324E6
:1072F000224EDFF8AC8000908DF80600ADF8045007
:107300000591CDE902236946304601F015FF054697
:10731000D0B1404604F040FB631E13F0FF04F2D1ED
:107320003946174804F038FB164804F035FBA5F53C
:107330006173062B05D8DFE803F01B041713040F55
:107340000B00114804F028FB284606B0BDE8F08188
:107350000E4804F021FBF7E70D4804F01DFBF3E7AE
:107360000C4804F019FBEFE70B4804F015FBEBE7C2
:107370000A4804F011FBE7E7084F002000401A40DC
:10738000E8CD006018CE00609CCE00607CCE00602E
:107390005CCE006048CE006034CE006024CE006039
:1073A000BCCD006008B5D6211920FFF78FFF4FF440
:1073B000F0711A20FFF78AFF1C212F20FFF786FFAC
:1073C00040F257110120FFF781FFF9210220FFF75A
:1073D0007DFF40F2F9110320FFF778FF002105201F
:1073E000FFF774FF0A210620FFF770FF0A2107202C
:1073F000FFF76CFF40210920FFF768FF4FF4E471AD
:107400001720FFF763FF04211C20FFF75FFF002117
:107410002020FFF75BFF4FF4B4712120FFF756FFE8
:107420004FF480712220FFF751FF4FF48071252027
:10743000FFF74CFF3E213020FFF748FFC121142009
:10744000FFF744FFBB211120FFF740FF4FF481718C
:107450001220FFF73BFF32211320BDE80840FFF761
:1074600035BF00BF29B307EE901A70B52DED048B20
:10747000B8EE679A0E46051F0024DFED0E8A9FEDD9
:107480000E8A07EE904A0134B8EEE70A20EE280A89
:1074900080EE090A03F01AFAA64220EE080ABDEEB1
:1074A000C00A10EE103A45F8043FEAD1BDEC048B57
:1074B00070BD7047DB0FC940001B374A2DE9F0470C
:1074C00004460F4616462DED048BB0EE408A002A86
:1074D00053D005469046DFED2A9A4FF0000A9FED03
:1074E000299A4FF00009DFED288A07EE908AB0EE66
:1074F000690AF8EE670AFBF72BFE88EE000AB8F17E
:10750000010820EE097AA5EC010AC5F8FC91C5F83E
:10751000FCA5C7EE287AC5EDFF7AE6D1354633469D
:10752000B74226D904EB8604DFED159A9FED159A34
:107530004FF00009DFED148A4FF000089B1BB0EEFE
:10754000690A013500EE903AF8EE600AFBF700FE9A
:1075500020EE080AAF422B4620EE097AA4EC010A7D
:10756000C4F8FC81C4F8FC95C7EE287AC4EDFF7A14
:10757000E4D8BDEC048BBDE8F08713461546CFE791
:107580007D9C873F0000004400203747F0B404464C
:10759000DFED2D4A00202D4E04F5007304F58061C7
:1075A000DFF8B0C09FED2A4AD3F80024002A45D066
:1075B000D3ED007A07EE102AD4F80078FCEEE76AE3
:1075C00093ED805AB8EE477A37EE855A16EE902A38
:1075D00016EE905AF8EE666A013257F82550B4EE6E
:1075E000C45AC2F3080205EE905A77EEE66A57F8DD
:1075F0002220F8EEE55A06EE102A65EE875AB8EE1C
:10760000C66AC5EEA47A26EE077A87EE246A36EEBD
:10761000677AE7EE267AFDEEE77A17EE902A0244C3
:10762000B2421046B8BF30466045A8BF6046F1EE92
:1076300010FAA8BF35EE445A83ED005A043399423C
:10764000B2D1F0BC704700BF0000FE424039D2FF0B
:1076500000000044C0C62D002DE9F0411C4C054639
:107660001C4E04F1D8081C4F2DED028BB0EE408A61
:1076700094ED017A1435D4ED006A84ED027AC4EDFC
:10768000016A97ED016A55ED037A15ED055A67EE2B
:10769000867A55ED025A15ED016AE5EE087AE6EEB6
:1076A000E57AE7EE467A17EE903AB0EE670A44F8CC
:1076B0000C3B04F094FE4445A6EC010AD8D13B688B
:1076C00087ED008A7B60BDEC028BBDE8F08100BFD6
:1076D000BC2900206C290020B4290020104B11493E
:1076E000D3F8A000104A30B408600124D3F8A050A9
:1076F0000E484D601168196252681A62D3F88820EA
:1077000022F4E01242F4A012C3F888209A6822F40E
:10771000E01242F4A0129A60047030BC704700BFBF
:1077200000001E405C29002064290020CC4F00206E
:107730004FF084431B6813F0200F0A4B0ED11A68D8
:1077400001321A601B680A2B074B8CBF01220022F2
:107750001A700122054BC3F80C21704700221A60F1
:10776000F0E700BF842C0020CE4F002000400840EE
:1077700008B500F07BF8094A09490220FFF740FAF2
:1077800030B900F093F80748BDE8084004F004B9A8
:107790000548BDE8084004F0FFB800BF85720060EE
:1077A000802C0020B0CB00609CCB0060014B18689F
:1077B000FFF7A4B9802C002043B10E2B10B504466E
:1077C00014D094F86530082B08D010BD90F86530BF
:1077D00001210C4A082B117010D0704794F86230C8
:1077E000012BF2D1092384F8643010BD064804F05F
:1077F000D3F894F86530082BE7D1EFE7072380F83A
:1078000064307047CD4F00201CD200600A2B10B5A9
